{
  "_format": "hh-sol-artifact-1",
  "contractName": "ScandalPrediction",
  "sourceName": "contracts/ScandalPrediction.sol",
  "abi": [
    {
      "inputs": [
        {
          "internalType": "string",
          "name": "title",
          "type": "string"
        },
        {
          "internalType": "string",
          "name": "description",
          "type": "string"
        },
        {
          "internalType": "uint16",
          "name": "minimum",
          "type": "uint16"
        },
        {
          "internalType": "uint256",
          "name": "predictionPeriod",
          "type": "uint256"
        },
        {
          "internalType": "uint256",
          "name": "votingPeriod",
          "type": "uint256"
        }
      ],
      "name": "addPrediction",
      "outputs": [],
      "stateMutability": "nonpayable",
      "type": "function"
    },
    {
      "inputs": [],
      "name": "getPredictions",
      "outputs": [
        {
          "components": [
            {
              "internalType": "string",
              "name": "title",
              "type": "string"
            },
            {
              "internalType": "string",
              "name": "description",
              "type": "string"
            },
            {
              "internalType": "uint16",
              "name": "minimum",
              "type": "uint16"
            },
            {
              "internalType": "uint256",
              "name": "predictionPeriod",
              "type": "uint256"
            },
            {
              "internalType": "uint256",
              "name": "votingPeriod",
              "type": "uint256"
            },
            {
              "internalType": "uint256",
              "name": "yesAmount",
              "type": "uint256"
            },
            {
              "internalType": "uint256",
              "name": "noAmount",
              "type": "uint256"
            },
            {
              "components": [
                {
                  "internalType": "uint256",
                  "name": "amount",
                  "type": "uint256"
                },
                {
                  "internalType": "address",
                  "name": "sender",
                  "type": "address"
                }
              ],
              "internalType": "struct ScandalPrediction.Vote[]",
              "name": "yesVote",
              "type": "tuple[]"
            },
            {
              "components": [
                {
                  "internalType": "uint256",
                  "name": "amount",
                  "type": "uint256"
                },
                {
                  "internalType": "address",
                  "name": "sender",
                  "type": "address"
                }
              ],
              "internalType": "struct ScandalPrediction.Vote[]",
              "name": "noVote",
              "type": "tuple[]"
            },
            {
              "internalType": "enum ScandalPrediction.Result",
              "name": "result",
              "type": "uint8"
            }
          ],
          "internalType": "struct ScandalPrediction.Prediction[]",
          "name": "",
          "type": "tuple[]"
        }
      ],
      "stateMutability": "view",
      "type": "function"
    },
    {
      "inputs": [
        {
          "internalType": "uint256",
          "name": "",
          "type": "uint256"
        }
      ],
      "name": "predictions",
      "outputs": [
        {
          "internalType": "string",
          "name": "title",
          "type": "string"
        },
        {
          "internalType": "string",
          "name": "description",
          "type": "string"
        },
        {
          "internalType": "uint16",
          "name": "minimum",
          "type": "uint16"
        },
        {
          "internalType": "uint256",
          "name": "predictionPeriod",
          "type": "uint256"
        },
        {
          "internalType": "uint256",
          "name": "votingPeriod",
          "type": "uint256"
        },
        {
          "internalType": "uint256",
          "name": "yesAmount",
          "type": "uint256"
        },
        {
          "internalType": "uint256",
          "name": "noAmount",
          "type": "uint256"
        },
        {
          "internalType": "enum ScandalPrediction.Result",
          "name": "result",
          "type": "uint8"
        }
      ],
      "stateMutability": "view",
      "type": "function"
    },
    {
      "inputs": [
        {
          "internalType": "uint256",
          "name": "predectionIndex",
          "type": "uint256"
        },
        {
          "internalType": "bool",
          "name": "yes",
          "type": "bool"
        },
        {
          "internalType": "uint256",
          "name": "amount",
          "type": "uint256"
        }
      ],
      "name": "vote",
      "outputs": [],
      "stateMutability": "nonpayable",
      "type": "function"
    }
  ],
  "bytecode": "0x608060405234801561001057600080fd5b5061146a806100206000396000f3fe608060405234801561001057600080fd5b506004361061004b5760003560e01c80624fbbb014610050578063a7c8efc314610087578063c78c3a83146100a3578063d46a5d7e146100c1575b600080fd5b61006a600480360381019061006591906108d0565b6100dd565b60405161007e989796959493929190610a30565b60405180910390f35b6100a1600480360381019061009c9190610c1d565b610260565b005b6100ab6102e0565b6040516100b89190611017565b60405180910390f35b6100db60048036038101906100d69190611071565b610665565b005b600081815481106100ed57600080fd5b90600052602060002090600a0201600091509050806000018054610110906110f3565b80601f016020809104026020016040519081016040528092919081815260200182805461013c906110f3565b80156101895780601f1061015e57610100808354040283529160200191610189565b820191906000526020600020905b81548152906001019060200180831161016c57829003601f168201915b50505050509080600101805461019e906110f3565b80601f01602080910402602001604051908101604052809291908181526020018280546101ca906110f3565b80156102175780601f106101ec57610100808354040283529160200191610217565b820191906000526020600020905b8154815290600101906020018083116101fa57829003601f168201915b5050505050908060020160009054906101000a900461ffff16908060030154908060040154908060050154908060060154908060090160009054906101000a900460ff16905088565b6000806001816001815401808255809150500390600052602060002090600a020190508581600001908161029491906112d0565b50848160010190816102a691906112d0565b50838160020160006101000a81548161ffff021916908361ffff160217905550828160030181905550818160040181905550505050505050565b60606000805480602002602001604051908101604052809291908181526020016000905b8282101561065c57838290600052602060002090600a020160405180610140016040529081600082018054610338906110f3565b80601f0160208091040260200160405190810160405280929190818152602001828054610364906110f3565b80156103b15780601f10610386576101008083540402835291602001916103b1565b820191906000526020600020905b81548152906001019060200180831161039457829003601f168201915b505050505081526020016001820180546103ca906110f3565b80601f01602080910402602001604051908101604052809291908181526020018280546103f6906110f3565b80156104435780601f1061041857610100808354040283529160200191610443565b820191906000526020600020905b81548152906001019060200180831161042657829003601f168201915b505050505081526020016002820160009054906101000a900461ffff1661ffff1661ffff1681526020016003820154815260200160048201548152602001600582015481526020016006820154815260200160078201805480602002602001604051908101604052809291908181526020016000905b8282101561054b5783829060005260206000209060020201604051806040016040529081600082015481526020016001820160009054906101000a900473ffffffffffffffffffffffffffffffffffffffff1673ffffffffffffffffffffffffffffffffffffffff1673ffffffffffffffffffffffffffffffffffffffff1681525050815260200190600101906104b9565b50505050815260200160088201805480602002602001604051908101604052809291908181526020016000905b8282101561060a5783829060005260206000209060020201604051806040016040529081600082015481526020016001820160009054906101000a900473ffffffffffffffffffffffffffffffffffffffff1673ffffffffffffffffffffffffffffffffffffffff1673ffffffffffffffffffffffffffffffffffffffff168152505081526020019060010190610578565b5050505081526020016009820160009054906101000a900460ff166002811115610637576106366109b9565b5b6002811115610649576106486109b9565b5b8152505081526020019060010190610304565b50505050905090565b81156107785780600084815481106106805761067f6113a2565b5b90600052602060002090600a020160050160008282546106a09190611400565b92505081905550600083815481106106bb576106ba6113a2565b5b90600052602060002090600a020160070160405180604001604052808381526020013373ffffffffffffffffffffffffffffffffffffffff1681525090806001815401808255809150506001900390600052602060002090600202016000909190919091506000820151816000015560208201518160010160006101000a81548173ffffffffffffffffffffffffffffffffffffffff021916908373ffffffffffffffffffffffffffffffffffffffff1602179055505050610881565b806000848154811061078d5761078c6113a2565b5b90600052602060002090600a020160060160008282546107ad9190611400565b92505081905550600083815481106107c8576107c76113a2565b5b90600052602060002090600a020160080160405180604001604052808381526020013373ffffffffffffffffffffffffffffffffffffffff1681525090806001815401808255809150506001900390600052602060002090600202016000909190919091506000820151816000015560208201518160010160006101000a81548173ffffffffffffffffffffffffffffffffffffffff021916908373ffffffffffffffffffffffffffffffffffffffff16021790555050505b505050565b6000604051905090565b600080fd5b600080fd5b6000819050919050565b6108ad8161089a565b81146108b857600080fd5b50565b6000813590506108ca816108a4565b92915050565b6000602082840312156108e6576108e5610890565b5b60006108f4848285016108bb565b91505092915050565b600081519050919050565b600082825260208201905092915050565b60005b8381101561093757808201518184015260208101905061091c565b60008484015250505050565b6000601f19601f8301169050919050565b600061095f826108fd565b6109698185610908565b9350610979818560208601610919565b61098281610943565b840191505092915050565b600061ffff82169050919050565b6109a48161098d565b82525050565b6109b38161089a565b82525050565b7f4e487b7100000000000000000000000000000000000000000000000000000000600052602160045260246000fd5b600381106109f9576109f86109b9565b5b50565b6000819050610a0a826109e8565b919050565b6000610a1a826109fc565b9050919050565b610a2a81610a0f565b82525050565b6000610100820190508181036000830152610a4b818b610954565b90508181036020830152610a5f818a610954565b9050610a6e604083018961099b565b610a7b60608301886109aa565b610a8860808301876109aa565b610a9560a08301866109aa565b610aa260c08301856109aa565b610aaf60e0830184610a21565b9998505050505050505050565b600080fd5b600080fd5b7f4e487b7100000000000000000000000000000000000000000000000000000000600052604160045260246000fd5b610afe82610943565b810181811067ffffffffffffffff82111715610b1d57610b1c610ac6565b5b80604052505050565b6000610b30610886565b9050610b3c8282610af5565b919050565b600067ffffffffffffffff821115610b5c57610b5b610ac6565b5b610b6582610943565b9050602081019050919050565b82818337600083830152505050565b6000610b94610b8f84610b41565b610b26565b905082815260208101848484011115610bb057610baf610ac1565b5b610bbb848285610b72565b509392505050565b600082601f830112610bd857610bd7610abc565b5b8135610be8848260208601610b81565b91505092915050565b610bfa8161098d565b8114610c0557600080fd5b50565b600081359050610c1781610bf1565b92915050565b600080600080600060a08688031215610c3957610c38610890565b5b600086013567ffffffffffffffff811115610c5757610c56610895565b5b610c6388828901610bc3565b955050602086013567ffffffffffffffff811115610c8457610c83610895565b5b610c9088828901610bc3565b9450506040610ca188828901610c08565b9350506060610cb2888289016108bb565b9250506080610cc3888289016108bb565b9150509295509295909350565b600081519050919050565b600082825260208201905092915050565b6000819050602082019050919050565b600082825260208201905092915050565b6000610d18826108fd565b610d228185610cfc565b9350610d32818560208601610919565b610d3b81610943565b840191505092915050565b610d4f8161098d565b82525050565b610d5e8161089a565b82525050565b600081519050919050565b600082825260208201905092915050565b6000819050602082019050919050565b600073ffffffffffffffffffffffffffffffffffffffff82169050919050565b6000610dbb82610d90565b9050919050565b610dcb81610db0565b82525050565b604082016000820151610de76000850182610d55565b506020820151610dfa6020850182610dc2565b50505050565b6000610e0c8383610dd1565b60408301905092915050565b6000602082019050919050565b6000610e3082610d64565b610e3a8185610d6f565b9350610e4583610d80565b8060005b83811015610e76578151610e5d8882610e00565b9750610e6883610e18565b925050600181019050610e49565b5085935050505092915050565b610e8c81610a0f565b82525050565b6000610140830160008301518482036000860152610eb08282610d0d565b91505060208301518482036020860152610eca8282610d0d565b9150506040830151610edf6040860182610d46565b506060830151610ef26060860182610d55565b506080830151610f056080860182610d55565b5060a0830151610f1860a0860182610d55565b5060c0830151610f2b60c0860182610d55565b5060e083015184820360e0860152610f438282610e25565b915050610100830151848203610100860152610f5f8282610e25565b915050610120830151610f76610120860182610e83565b508091505092915050565b6000610f8d8383610e92565b905092915050565b6000602082019050919050565b6000610fad82610cd0565b610fb78185610cdb565b935083602082028501610fc985610cec565b8060005b858110156110055784840389528151610fe68582610f81565b9450610ff183610f95565b925060208a01995050600181019050610fcd565b50829750879550505050505092915050565b600060208201905081810360008301526110318184610fa2565b905092915050565b60008115159050919050565b61104e81611039565b811461105957600080fd5b50565b60008135905061106b81611045565b92915050565b60008060006060848603121561108a57611089610890565b5b6000611098868287016108bb565b93505060206110a98682870161105c565b92505060406110ba868287016108bb565b9150509250925092565b7f4e487b7100000000000000000000000000000000000000000000000000000000600052602260045260246000fd5b6000600282049050600182168061110b57607f821691505b60208210810361111e5761111d6110c4565b5b50919050565b60008190508160005260206000209050919050565b60006020601f8301049050919050565b600082821b905092915050565b6000600883026111867fffffffffffffffffffffffffffffffffffffffffffffffffffffffffffffffff82611149565b6111908683611149565b95508019841693508086168417925050509392505050565b6000819050919050565b60006111cd6111c86111c38461089a565b6111a8565b61089a565b9050919050565b6000819050919050565b6111e7836111b2565b6111fb6111f3826111d4565b848454611156565b825550505050565b600090565b611210611203565b61121b8184846111de565b505050565b5b8181101561123f57611234600082611208565b600181019050611221565b5050565b601f8211156112845761125581611124565b61125e84611139565b8101602085101561126d578190505b61128161127985611139565b830182611220565b50505b505050565b600082821c905092915050565b60006112a760001984600802611289565b1980831691505092915050565b60006112c08383611296565b9150826002028217905092915050565b6112d9826108fd565b67ffffffffffffffff8111156112f2576112f1610ac6565b5b6112fc82546110f3565b611307828285611243565b600060209050601f83116001811461133a5760008415611328578287015190505b61133285826112b4565b86555061139a565b601f19841661134886611124565b60005b828110156113705784890151825560018201915060208501945060208101905061134b565b8683101561138d5784890151611389601f891682611296565b8355505b6001600288020188555050505b505050505050565b7f4e487b7100000000000000000000000000000000000000000000000000000000600052603260045260246000fd5b7f4e487b7100000000000000000000000000000000000000000000000000000000600052601160045260246000fd5b600061140b8261089a565b91506114168361089a565b925082820190508082111561142e5761142d6113d1565b5b9291505056fea2646970667358221220eecc9c1aacc77364cad797a9cdc08b42e4ae81f3103855a8aa60d36cb6c094ca64736f6c63430008120033",
  "linkReferences": {},
  "deployedLinkReferences": {}
}